{
  "_format": "hh-sol-artifact-1",
  "contractName": "TokenExchange",
  "sourceName": "contracts/exchange.sol",
  "abi": [
    {
      "inputs": [],
      "stateMutability": "nonpayable",
      "type": "constructor"
    },
    {
      "anonymous": false,
      "inputs": [
        {
          "indexed": true,
          "internalType": "address",
          "name": "previousOwner",
          "type": "address"
        },
        {
          "indexed": true,
          "internalType": "address",
          "name": "newOwner",
          "type": "address"
        }
      ],
      "name": "OwnershipTransferred",
      "type": "event"
    },
    {
      "inputs": [
        {
          "internalType": "uint256",
          "name": "max_exchange_rate",
          "type": "uint256"
        },
        {
          "internalType": "uint256",
          "name": "min_exchange_rate",
          "type": "uint256"
        }
      ],
      "name": "addLiquidity",
      "outputs": [],
      "stateMutability": "payable",
      "type": "function"
    },
    {
      "inputs": [
        {
          "internalType": "uint256",
          "name": "amountTokens",
          "type": "uint256"
        }
      ],
      "name": "createPool",
      "outputs": [],
      "stateMutability": "payable",
      "type": "function"
    },
    {
      "inputs": [],
      "name": "exchange_name",
      "outputs": [
        {
          "internalType": "string",
          "name": "",
          "type": "string"
        }
      ],
      "stateMutability": "view",
      "type": "function"
    },
    {
      "inputs": [],
      "name": "getSwapFee",
      "outputs": [
        {
          "internalType": "uint256",
          "name": "",
          "type": "uint256"
        },
        {
          "internalType": "uint256",
          "name": "",
          "type": "uint256"
        }
      ],
      "stateMutability": "view",
      "type": "function"
    },
    {
      "inputs": [
        {
          "internalType": "address",
          "name": "provider_addr",
          "type": "address"
        }
      ],
      "name": "isNewLpProvider",
      "outputs": [
        {
          "internalType": "bool",
          "name": "",
          "type": "bool"
        }
      ],
      "stateMutability": "view",
      "type": "function"
    },
    {
      "inputs": [],
      "name": "owner",
      "outputs": [
        {
          "internalType": "address",
          "name": "",
          "type": "address"
        }
      ],
      "stateMutability": "view",
      "type": "function"
    },
    {
      "inputs": [],
      "name": "priceTokenPerETH",
      "outputs": [
        {
          "internalType": "uint256",
          "name": "",
          "type": "uint256"
        }
      ],
      "stateMutability": "view",
      "type": "function"
    },
    {
      "inputs": [
        {
          "internalType": "uint256",
          "name": "max_exchange_rate",
          "type": "uint256"
        },
        {
          "internalType": "uint256",
          "name": "min_exchange_rate",
          "type": "uint256"
        }
      ],
      "name": "removeAllLiquidity",
      "outputs": [],
      "stateMutability": "payable",
      "type": "function"
    },
    {
      "inputs": [
        {
          "internalType": "uint256",
          "name": "amountETH",
          "type": "uint256"
        },
        {
          "internalType": "uint256",
          "name": "max_exchange_rate",
          "type": "uint256"
        },
        {
          "internalType": "uint256",
          "name": "min_exchange_rate",
          "type": "uint256"
        }
      ],
      "name": "removeLiquidity",
      "outputs": [],
      "stateMutability": "payable",
      "type": "function"
    },
    {
      "inputs": [],
      "name": "renounceOwnership",
      "outputs": [],
      "stateMutability": "nonpayable",
      "type": "function"
    },
    {
      "inputs": [
        {
          "internalType": "uint256",
          "name": "max_exchange_rate",
          "type": "uint256"
        }
      ],
      "name": "swapETHForTokens",
      "outputs": [],
      "stateMutability": "payable",
      "type": "function"
    },
    {
      "inputs": [
        {
          "internalType": "uint256",
          "name": "amountTokens",
          "type": "uint256"
        },
        {
          "internalType": "uint256",
          "name": "max_exchange_rate",
          "type": "uint256"
        }
      ],
      "name": "swapTokensForETH",
      "outputs": [],
      "stateMutability": "payable",
      "type": "function"
    },
    {
      "inputs": [],
      "name": "token",
      "outputs": [
        {
          "internalType": "contract Token",
          "name": "",
          "type": "address"
        }
      ],
      "stateMutability": "view",
      "type": "function"
    },
    {
      "inputs": [
        {
          "internalType": "address",
          "name": "newOwner",
          "type": "address"
        }
      ],
      "name": "transferOwnership",
      "outputs": [],
      "stateMutability": "nonpayable",
      "type": "function"
    }
  ],
  "bytecode": "0x60806040526040518060200160405280600081525060019081620000249190620004c0565b5073f6733ab90988c457a5ac360d7f8dfb9e24aa108f600260006101000a81548173ffffffffffffffffffffffffffffffffffffffff021916908373ffffffffffffffffffffffffffffffffffffffff160217905550600260009054906101000a900473ffffffffffffffffffffffffffffffffffffffff16600360006101000a81548173ffffffffffffffffffffffffffffffffffffffff021916908373ffffffffffffffffffffffffffffffffffffffff1602179055506000600460006101000a81548173ffffffffffffffffffffffffffffffffffffffff021916908373ffffffffffffffffffffffffffffffffffffffff16021790555060006005556000600655600060075560006008556005600d556064600e556402540be4006010553480156200015357600080fd5b5062000174620001686200017a60201b60201c565b6200018260201b60201c565b620005a7565b600033905090565b60008060009054906101000a900473ffffffffffffffffffffffffffffffffffffffff169050816000806101000a81548173ffffffffffffffffffffffffffffffffffffffff021916908373ffffffffffffffffffffffffffffffffffffffff1602179055508173ffffffffffffffffffffffffffffffffffffffff168173ffffffffffffffffffffffffffffffffffffffff167f8be0079c531659141344cd1fd0a4f28419497f9722a3daafe3b4186f6b6457e060405160405180910390a35050565b600081519050919050565b7f4e487b7100000000000000000000000000000000000000000000000000000000600052604160045260246000fd5b7f4e487b7100000000000000000000000000000000000000000000000000000000600052602260045260246000fd5b60006002820490506001821680620002c857607f821691505b602082108103620002de57620002dd62000280565b5b50919050565b60008190508160005260206000209050919050565b60006020601f8301049050919050565b600082821b905092915050565b600060088302620003487fffffffffffffffffffffffffffffffffffffffffffffffffffffffffffffffff8262000309565b62000354868362000309565b95508019841693508086168417925050509392505050565b6000819050919050565b6000819050919050565b6000620003a16200039b62000395846200036c565b62000376565b6200036c565b9050919050565b6000819050919050565b620003bd8362000380565b620003d5620003cc82620003a8565b84845462000316565b825550505050565b600090565b620003ec620003dd565b620003f9818484620003b2565b505050565b5b81811015620004215762000415600082620003e2565b600181019050620003ff565b5050565b601f82111562000470576200043a81620002e4565b6200044584620002f9565b8101602085101562000455578190505b6200046d6200046485620002f9565b830182620003fe565b50505b505050565b600082821c905092915050565b6000620004956000198460080262000475565b1980831691505092915050565b6000620004b0838362000482565b9150826002028217905092915050565b620004cb8262000246565b67ffffffffffffffff811115620004e757620004e662000251565b5b620004f38254620002af565b6200050082828562000425565b600060209050601f83116001811462000538576000841562000523578287015190505b6200052f8582620004a2565b8655506200059f565b601f1984166200054886620002e4565b60005b8281101562000572578489015182556001820191506020850194506020810190506200054b565b868310156200059257848901516200058e601f89168262000482565b8355505b6001600288020188555050505b505050505050565b6141a180620005b76000396000f3fe6080604052600436106100dd5760003560e01c80639cd441da1161007f578063d4cadf6811610059578063d4cadf6814610234578063f2fde38b14610260578063f694f7d114610289578063fc0c546a146102b4576100dd565b80639cd441da146101d1578063a0062650146101ed578063a22280a614610218576100dd565b8063715018a6116100bb578063715018a6146101575780638259e6a01461016e578063857620e11461018a5780638da5cb5b146101a6576100dd565b80631e98e67c146100e25780632eab28411461011f57806358ad6de41461013b575b600080fd5b3480156100ee57600080fd5b506101096004803603810190610104919061302b565b6102df565b6040516101169190613073565b60405180910390f35b610139600480360381019061013491906130c4565b61038d565b005b610155600480360381019061015091906130f1565b610658565b005b34801561016357600080fd5b5061016c61101b565b005b610188600480360381019061018391906130c4565b61102f565b005b6101a4600480360381019061019f9190613131565b61147c565b005b3480156101b257600080fd5b506101bb6119d1565b6040516101c89190613193565b60405180910390f35b6101eb60048036038101906101e691906130f1565b6119fa565b005b3480156101f957600080fd5b50610202611e02565b60405161020f91906131bd565b60405180910390f35b610232600480360381019061022d91906130f1565b611e70565b005b34801561024057600080fd5b506102496122a6565b6040516102579291906131d8565b60405180910390f35b34801561026c57600080fd5b506102876004803603810190610282919061302b565b6122b7565b005b34801561029557600080fd5b5061029e61233a565b6040516102ab9190613291565b60405180910390f35b3480156102c057600080fd5b506102c96123c8565b6040516102d69190613312565b60405180910390f35b6000806001905060005b600c8054905081101561038357600c818154811061030a5761030961332d565b5b9060005260206000200160009054906101000a900473ffffffffffffffffffffffffffffffffffffffff1673ffffffffffffffffffffffffffffffffffffffff168473ffffffffffffffffffffffffffffffffffffffff16036103705760009150610383565b808061037b9061338b565b9150506102e9565b5080915050919050565b600160055410156103d3576040517f08c379a00000000000000000000000000000000000000000000000000000000081526004016103ca9061341f565b60405180910390fd5b60016006541015610419576040517f08c379a00000000000000000000000000000000000000000000000000000000081526004016104109061348b565b60405180910390fd5b6010546005548261042a91906134ab565b610434919061351c565b60065410610477576040517f08c379a000000000000000000000000000000000000000000000000000000000815260040161046e90613599565b60405180910390fd5b60003490506000600e54600d548361048f91906134ab565b610499919061351c565b905080826104a791906135b9565b915080600860008282546104bb91906135ed565b925050819055506104cb816123ee565b6000600754146104de576104dd6124f9565b5b81600660008282546104f091906135ed565b925050819055506000600654600f54610509919061351c565b905060008160055461051b91906135b9565b905081600581905550600360009054906101000a900473ffffffffffffffffffffffffffffffffffffffff1673ffffffffffffffffffffffffffffffffffffffff1663a9059cbb33836040518363ffffffff1660e01b8152600401610581929190613621565b6020604051808303816000875af11580156105a0573d6000803e3d6000fd5b505050506040513d601f19601f820116820180604052508101906105c49190613676565b506001600554101561060b576040517f08c379a00000000000000000000000000000000000000000000000000000000081526004016106029061341f565b60405180910390fd5b60016006541015610651576040517f08c379a00000000000000000000000000000000000000000000000000000000081526004016106489061348b565b60405180910390fd5b5050505050565b600060065411801561066c57506000600554115b6106ab576040517f08c379a00000000000000000000000000000000000000000000000000000000081526004016106a2906136ef565b60405180910390fd5b600015156106b8336102df565b1515146106fa576040517f08c379a00000000000000000000000000000000000000000000000000000000081526004016106f19061375b565b60405180910390fd5b6010546006548361070b91906134ab565b610715919061351c565b60055410610758576040517f08c379a000000000000000000000000000000000000000000000000000000000815260040161074f906137c7565b60405180910390fd5b6010546006548261076991906134ab565b610773919061351c565b600554116107b6576040517f08c379a00000000000000000000000000000000000000000000000000000000081526004016107ad90613833565b60405180910390fd5b6000601054600654600960003373ffffffffffffffffffffffffffffffffffffffff1673ffffffffffffffffffffffffffffffffffffffff1681526020019081526020016000205461080891906134ab565b610812919061351c565b90506006548110610858576040517f08c379a000000000000000000000000000000000000000000000000000000000815260040161084f9061348b565b60405180910390fd5b60006006546005548361086b91906134ab565b610875919061351c565b905060055481106108bb576040517f08c379a00000000000000000000000000000000000000000000000000000000081526004016108b29061341f565b60405180910390fd5b3373ffffffffffffffffffffffffffffffffffffffff166108fc839081150290604051600060405180830381858888f19350505050158015610901573d6000803e3d6000fd5b50600360009054906101000a900473ffffffffffffffffffffffffffffffffffffffff1673ffffffffffffffffffffffffffffffffffffffff1663a9059cbb33836040518363ffffffff1660e01b815260040161095f929190613621565b6020604051808303816000875af115801561097e573d6000803e3d6000fd5b505050506040513d601f19601f820116820180604052508101906109a29190613676565b5080600560008282546109b591906135b9565b9250508190555081600660008282546109ce91906135b9565b925050819055506006546005546109e591906134ab565b600f8190555060006109f883600061282c565b90506000601054600a60003373ffffffffffffffffffffffffffffffffffffffff1673ffffffffffffffffffffffffffffffffffffffff16815260200190815260200160002054610a49919061351c565b90506000601054600b60003373ffffffffffffffffffffffffffffffffffffffff1673ffffffffffffffffffffffffffffffffffffffff16815260200190815260200160002054610a9a919061351c565b90503373ffffffffffffffffffffffffffffffffffffffff166108fc839081150290604051600060405180830381858888f19350505050158015610ae2573d6000803e3d6000fd5b50600360009054906101000a900473ffffffffffffffffffffffffffffffffffffffff1673ffffffffffffffffffffffffffffffffffffffff1663a9059cbb33836040518363ffffffff1660e01b8152600401610b40929190613621565b6020604051808303816000875af1158015610b5f573d6000803e3d6000fd5b505050506040513d601f19601f82011682018060405250810190610b839190613676565b506000610baa8360055460065485610b9b91906134ab565b610ba5919061351c565b612c04565b9050600060065460055483610bbf91906134ab565b610bc9919061351c565b90508160066000828254610bdd91906135b9565b925050819055508060056000828254610bf691906135b9565b92505081905550600654600554610c0d91906134ab565b600f81905550600082600654610c2391906135ed565b905060005b600c80549050811015610e86576000600c8281548110610c4b57610c4a61332d565b5b9060005260206000200160009054906101000a900473ffffffffffffffffffffffffffffffffffffffff169050600460009054906101000a900473ffffffffffffffffffffffffffffffffffffffff1673ffffffffffffffffffffffffffffffffffffffff168173ffffffffffffffffffffffffffffffffffffffff1603610dd65760065485601054610cde91906134ab565b610ce8919061351c565b6006548460096000600460009054906101000a900473ffffffffffffffffffffffffffffffffffffffff1673ffffffffffffffffffffffffffffffffffffffff1673ffffffffffffffffffffffffffffffffffffffff16815260200190815260200160002054610d5891906134ab565b610d62919061351c565b610d6c91906135b9565b60096000600460009054906101000a900473ffffffffffffffffffffffffffffffffffffffff1673ffffffffffffffffffffffffffffffffffffffff1673ffffffffffffffffffffffffffffffffffffffff16815260200190815260200160002081905550610e72565b60065483600960008473ffffffffffffffffffffffffffffffffffffffff1673ffffffffffffffffffffffffffffffffffffffff16815260200190815260200160002054610e2491906134ab565b610e2e919061351c565b600960008373ffffffffffffffffffffffffffffffffffffffff1673ffffffffffffffffffffffffffffffffffffffff168152602001908152602001600020819055505b508080610e7e9061338b565b915050610c28565b50848303610f06578382610e9a91906135b9565b60076000828254610eab91906135ed565b9250508190555060008483610ec091906135b9565b1015610f01576040517f08c379a0000000000000000000000000000000000000000000000000000000008152600401610ef89061389f565b60405180910390fd5b610f7a565b8483610f1291906135b9565b60086000828254610f2391906135ed565b9250508190555060008584610f3891906135b9565b1015610f79576040517f08c379a0000000000000000000000000000000000000000000000000000000008152600401610f709061389f565b60405180910390fd5b5b610f8386612c1d565b60016005541015610fc9576040517f08c379a0000000000000000000000000000000000000000000000000000000008152600401610fc09061341f565b60405180910390fd5b6001600654101561100f576040517f08c379a00000000000000000000000000000000000000000000000000000000081526004016110069061348b565b60405180910390fd5b50505050505050505050565b611023612d5a565b61102d6000612dd8565b565b611037612d5a565b60006005541461107c576040517f08c379a00000000000000000000000000000000000000000000000000000000081526004016110739061390b565b60405180910390fd5b6000600654146110c1576040517f08c379a00000000000000000000000000000000000000000000000000000000081526004016110b890613977565b60405180910390fd5b60003411611104576040517f08c379a00000000000000000000000000000000000000000000000000000000081526004016110fb906139e3565b60405180910390fd5b6000600360009054906101000a900473ffffffffffffffffffffffffffffffffffffffff1673ffffffffffffffffffffffffffffffffffffffff166370a08231336040518263ffffffff1660e01b81526004016111619190613193565b602060405180830381865afa15801561117e573d6000803e3d6000fd5b505050506040513d601f19601f820116820180604052508101906111a29190613a18565b9050808211156111e7576040517f08c379a00000000000000000000000000000000000000000000000000000000081526004016111de90613ab7565b60405180910390fd5b6000821161122a576040517f08c379a000000000000000000000000000000000000000000000000000000000815260040161122190613b23565b60405180910390fd5b600360009054906101000a900473ffffffffffffffffffffffffffffffffffffffff1673ffffffffffffffffffffffffffffffffffffffff166323b872dd3330856040518463ffffffff1660e01b815260040161128993929190613b43565b6020604051808303816000875af11580156112a8573d6000803e3d6000fd5b505050506040513d601f19601f820116820180604052508101906112cc9190613676565b50600360009054906101000a900473ffffffffffffffffffffffffffffffffffffffff1673ffffffffffffffffffffffffffffffffffffffff166370a08231306040518263ffffffff1660e01b81526004016113289190613193565b602060405180830381865afa158015611345573d6000803e3d6000fd5b505050506040513d601f19601f820116820180604052508101906113699190613a18565b6005819055503460068190555060065460055461138691906134ab565b600f81905550600c600460009054906101000a900473ffffffffffffffffffffffffffffffffffffffff169080600181540180825580915050600190039060005260206000200160009091909190916101000a81548173ffffffffffffffffffffffffffffffffffffffff021916908373ffffffffffffffffffffffffffffffffffffffff160217905550600060096000600460009054906101000a900473ffffffffffffffffffffffffffffffffffffffff1673ffffffffffffffffffffffffffffffffffffffff1673ffffffffffffffffffffffffffffffffffffffff168152602001908152602001600020819055505050565b600060065411801561149057506000600554115b6114cf576040517f08c379a00000000000000000000000000000000000000000000000000000000081526004016114c690613bec565b60405180910390fd5b60008311611512576040517f08c379a000000000000000000000000000000000000000000000000000000000815260040161150990613c58565b60405180910390fd5b6006548310611556576040517f08c379a000000000000000000000000000000000000000000000000000000000815260040161154d9061348b565b60405180910390fd5b6000601054600654600960003373ffffffffffffffffffffffffffffffffffffffff1673ffffffffffffffffffffffffffffffffffffffff168152602001908152602001600020546115a891906134ab565b6115b2919061351c565b9050808411156115f7576040517f08c379a00000000000000000000000000000000000000000000000000000000081526004016115ee90613cea565b60405180910390fd5b60006006546005548661160a91906134ab565b611614919061351c565b9050600554811061165a576040517f08c379a00000000000000000000000000000000000000000000000000000000081526004016116519061341f565b60405180910390fd5b6010546006548561166b91906134ab565b611675919061351c565b600554106116b8576040517f08c379a00000000000000000000000000000000000000000000000000000000081526004016116af906137c7565b60405180910390fd5b601054600654846116c991906134ab565b6116d3919061351c565b60055411611716576040517f08c379a000000000000000000000000000000000000000000000000000000000815260040161170d90613833565b60405180910390fd5b3373ffffffffffffffffffffffffffffffffffffffff166108fc869081150290604051600060405180830381858888f1935050505015801561175c573d6000803e3d6000fd5b50600360009054906101000a900473ffffffffffffffffffffffffffffffffffffffff1673ffffffffffffffffffffffffffffffffffffffff1663a9059cbb33836040518363ffffffff1660e01b81526004016117ba929190613621565b6020604051808303816000875af11580156117d9573d6000803e3d6000fd5b505050506040513d601f19601f820116820180604052508101906117fd9190613676565b50806005600082825461181091906135b9565b92505081905550846006600082825461182991906135b9565b9250508190555060065460055461184091906134ab565b600f81905550600061185386600061282c565b90506000600960003373ffffffffffffffffffffffffffffffffffffffff1673ffffffffffffffffffffffffffffffffffffffff168152602001908152602001600020541480156118e357506000600a60003373ffffffffffffffffffffffffffffffffffffffff1673ffffffffffffffffffffffffffffffffffffffff16815260200190815260200160002054145b801561192e57506000600b60003373ffffffffffffffffffffffffffffffffffffffff1673ffffffffffffffffffffffffffffffffffffffff16815260200190815260200160002054145b1561193d5761193c81612c1d565b5b60016005541015611983576040517f08c379a000000000000000000000000000000000000000000000000000000000815260040161197a9061341f565b60405180910390fd5b600160065410156119c9576040517f08c379a00000000000000000000000000000000000000000000000000000000081526004016119c09061348b565b60405180910390fd5b505050505050565b60008060009054906101000a900473ffffffffffffffffffffffffffffffffffffffff16905090565b6000600654118015611a0e57506000600554115b611a4d576040517f08c379a0000000000000000000000000000000000000000000000000000000008152600401611a4490613bec565b60405180910390fd5b60003411611a90576040517f08c379a0000000000000000000000000000000000000000000000000000000008152600401611a8790613d56565b60405180910390fd5b6000349050600060065460055434611aa891906134ab565b611ab2919061351c565b905080600360009054906101000a900473ffffffffffffffffffffffffffffffffffffffff1673ffffffffffffffffffffffffffffffffffffffff166370a08231336040518263ffffffff1660e01b8152600401611b109190613193565b602060405180830381865afa158015611b2d573d6000803e3d6000fd5b505050506040513d601f19601f82011682018060405250810190611b519190613a18565b1015611b92576040517f08c379a0000000000000000000000000000000000000000000000000000000008152600401611b8990613dc2565b60405180910390fd5b60105460065485611ba391906134ab565b611bad919061351c565b60055410611bf0576040517f08c379a0000000000000000000000000000000000000000000000000000000008152600401611be7906137c7565b60405180910390fd5b60105460065484611c0191906134ab565b611c0b919061351c565b60055411611c4e576040517f08c379a0000000000000000000000000000000000000000000000000000000008152600401611c4590613833565b60405180910390fd5b600360009054906101000a900473ffffffffffffffffffffffffffffffffffffffff1673ffffffffffffffffffffffffffffffffffffffff166323b872dd3330846040518463ffffffff1660e01b8152600401611cad93929190613b43565b6020604051808303816000875af1158015611ccc573d6000803e3d6000fd5b505050506040513d601f19601f82011682018060405250810190611cf09190613676565b508060056000828254611d0391906135ed565b925050819055508160066000828254611d1c91906135ed565b92505081905550600654600554611d3391906134ab565b600f81905550611d42336102df565b15611df057600c339080600181540180825580915050600190039060005260206000200160009091909190916101000a81548173ffffffffffffffffffffffffffffffffffffffff021916908373ffffffffffffffffffffffffffffffffffffffff1602179055506000600960003373ffffffffffffffffffffffffffffffffffffffff1673ffffffffffffffffffffffffffffffffffffffff168152602001908152602001600020819055505b611dfb82600161282c565b5050505050565b60008060065411611e48576040517f08c379a0000000000000000000000000000000000000000000000000000000008152600401611e3f90613e2e565b60405180910390fd5b600654670de0b6b3a7640000600554611e6191906134ab565b611e6b919061351c565b905090565b60016005541015611eb6576040517f08c379a0000000000000000000000000000000000000000000000000000000008152600401611ead9061341f565b60405180910390fd5b60016006541015611efc576040517f08c379a0000000000000000000000000000000000000000000000000000000008152600401611ef39061348b565b60405180910390fd5b6000600360009054906101000a900473ffffffffffffffffffffffffffffffffffffffff1673ffffffffffffffffffffffffffffffffffffffff166370a08231336040518263ffffffff1660e01b8152600401611f599190613193565b602060405180830381865afa158015611f76573d6000803e3d6000fd5b505050506040513d601f19601f82011682018060405250810190611f9a9190613a18565b905080831115611fdf576040517f08c379a0000000000000000000000000000000000000000000000000000000008152600401611fd690613ec0565b60405180910390fd5b60008311612022576040517f08c379a000000000000000000000000000000000000000000000000000000000815260040161201990613f2c565b60405180910390fd5b6010546006548361203391906134ab565b61203d919061351c565b60055410612080576040517f08c379a000000000000000000000000000000000000000000000000000000000815260040161207790613599565b60405180910390fd5b600360009054906101000a900473ffffffffffffffffffffffffffffffffffffffff1673ffffffffffffffffffffffffffffffffffffffff166323b872dd3330866040518463ffffffff1660e01b81526004016120df93929190613b43565b6020604051808303816000875af11580156120fe573d6000803e3d6000fd5b505050506040513d601f19601f820116820180604052508101906121229190613676565b506000600e54600d548561213691906134ab565b612140919061351c565b9050808461214e91906135b9565b9350806007600082825461216291906135ed565b9250508190555061217281612e9c565b600060085414612185576121846124f9565b5b836005600082825461219791906135ed565b925050819055506000600554600f546121b0919061351c565b90506000816006546121c291906135b9565b9050816006819055503373ffffffffffffffffffffffffffffffffffffffff166108fc829081150290604051600060405180830381858888f19350505050158015612211573d6000803e3d6000fd5b5060016005541015612258576040517f08c379a000000000000000000000000000000000000000000000000000000000815260040161224f9061341f565b60405180910390fd5b6001600654101561229e576040517f08c379a00000000000000000000000000000000000000000000000000000000081526004016122959061348b565b60405180910390fd5b505050505050565b600080600d54600e54915091509091565b6122bf612d5a565b600073ffffffffffffffffffffffffffffffffffffffff168173ffffffffffffffffffffffffffffffffffffffff160361232e576040517f08c379a000000000000000000000000000000000000000000000000000000000815260040161232590613fbe565b60405180910390fd5b61233781612dd8565b50565b600180546123479061400d565b80601f01602080910402602001604051908101604052809291908181526020018280546123739061400d565b80156123c05780601f10612395576101008083540402835291602001916123c0565b820191906000526020600020905b8154815290600101906020018083116123a357829003601f168201915b505050505081565b600360009054906101000a900473ffffffffffffffffffffffffffffffffffffffff1681565b60005b600c805490508110156124f5576000600c82815481106124145761241361332d565b5b9060005260206000200160009054906101000a900473ffffffffffffffffffffffffffffffffffffffff16905082600960008373ffffffffffffffffffffffffffffffffffffffff1673ffffffffffffffffffffffffffffffffffffffff1681526020019081526020016000205461248c91906134ab565b600a60008373ffffffffffffffffffffffffffffffffffffffff1673ffffffffffffffffffffffffffffffffffffffff16815260200190815260200160002060008282546124da91906135ed565b925050819055505080806124ed9061338b565b9150506123f1565b5050565b600061252360085460055460065460075461251491906134ab565b61251e919061351c565b612fa7565b905060006006546005548361253891906134ab565b612542919061351c565b9050816008600082825461255691906135b9565b92505081905550806007600082825461256f91906135b9565b9250508190555060006006549050826006600082825461258f91906135ed565b9250508190555081600560008282546125a891906135ed565b925050819055506005546006546125bf91906134ab565b600f8190555060005b600c80549050811015612826576000600c82815481106125eb576125ea61332d565b5b9060005260206000200160009054906101000a900473ffffffffffffffffffffffffffffffffffffffff169050600460009054906101000a900473ffffffffffffffffffffffffffffffffffffffff1673ffffffffffffffffffffffffffffffffffffffff168173ffffffffffffffffffffffffffffffffffffffff1603612776576006548560105461267e91906134ab565b612688919061351c565b6006548460096000600460009054906101000a900473ffffffffffffffffffffffffffffffffffffffff1673ffffffffffffffffffffffffffffffffffffffff1673ffffffffffffffffffffffffffffffffffffffff168152602001908152602001600020546126f891906134ab565b612702919061351c565b61270c91906135ed565b60096000600460009054906101000a900473ffffffffffffffffffffffffffffffffffffffff1673ffffffffffffffffffffffffffffffffffffffff1673ffffffffffffffffffffffffffffffffffffffff16815260200190815260200160002081905550612812565b60065483600960008473ffffffffffffffffffffffffffffffffffffffff1673ffffffffffffffffffffffffffffffffffffffff168152602001908152602001600020546127c491906134ab565b6127ce919061351c565b600960008373ffffffffffffffffffffffffffffffffffffffff1673ffffffffffffffffffffffffffffffffffffffff168152602001908152602001600020819055505b50808061281e9061338b565b9150506125c8565b50505050565b60008060005b600c80549050811015612bf9576000600c82815481106128555761285461332d565b5b9060005260206000200160009054906101000a900473ffffffffffffffffffffffffffffffffffffffff16905060006001151586151503612a3c578660065461289e91906135b9565b90503373ffffffffffffffffffffffffffffffffffffffff168273ffffffffffffffffffffffffffffffffffffffff160361299b57600654876010546128e491906134ab565b6128ee919061351c565b60065482600960003373ffffffffffffffffffffffffffffffffffffffff1673ffffffffffffffffffffffffffffffffffffffff1681526020019081526020016000205461293c91906134ab565b612946919061351c565b61295091906135ed565b600960003373ffffffffffffffffffffffffffffffffffffffff1673ffffffffffffffffffffffffffffffffffffffff16815260200190815260200160002081905550829350612a37565b60065481600960008573ffffffffffffffffffffffffffffffffffffffff1673ffffffffffffffffffffffffffffffffffffffff168152602001908152602001600020546129e991906134ab565b6129f3919061351c565b600960008473ffffffffffffffffffffffffffffffffffffffff1673ffffffffffffffffffffffffffffffffffffffff168152602001908152602001600020819055505b612be4565b86600654612a4a91906135ed565b90503373ffffffffffffffffffffffffffffffffffffffff168273ffffffffffffffffffffffffffffffffffffffff1603612b475760065487601054612a9091906134ab565b612a9a919061351c565b60065482600960003373ffffffffffffffffffffffffffffffffffffffff1673ffffffffffffffffffffffffffffffffffffffff16815260200190815260200160002054612ae891906134ab565b612af2919061351c565b612afc91906135b9565b600960003373ffffffffffffffffffffffffffffffffffffffff1673ffffffffffffffffffffffffffffffffffffffff16815260200190815260200160002081905550829350612be3565b60065481600960008573ffffffffffffffffffffffffffffffffffffffff1673ffffffffffffffffffffffffffffffffffffffff16815260200190815260200160002054612b9591906134ab565b612b9f919061351c565b600960008473ffffffffffffffffffffffffffffffffffffffff1673ffffffffffffffffffffffffffffffffffffffff168152602001908152602001600020819055505b5b50508080612bf19061338b565b915050612832565b508091505092915050565b6000818311612c135781612c15565b825b905092915050565b600c805490508110612c64576040517f08c379a0000000000000000000000000000000000000000000000000000000008152600401612c5b906140b0565b60405180910390fd5b600c6001600c80549050612c7891906135b9565b81548110612c8957612c8861332d565b5b9060005260206000200160009054906101000a900473ffffffffffffffffffffffffffffffffffffffff16600c8281548110612cc857612cc761332d565b5b9060005260206000200160006101000a81548173ffffffffffffffffffffffffffffffffffffffff021916908373ffffffffffffffffffffffffffffffffffffffff160217905550600c805480612d2257612d216140d0565b5b6001900381819060005260206000200160006101000a81549073ffffffffffffffffffffffffffffffffffffffff0219169055905550565b612d62612fc0565b73ffffffffffffffffffffffffffffffffffffffff16612d806119d1565b73ffffffffffffffffffffffffffffffffffffffff1614612dd6576040517f08c379a0000000000000000000000000000000000000000000000000000000008152600401612dcd9061414b565b60405180910390fd5b565b60008060009054906101000a900473ffffffffffffffffffffffffffffffffffffffff169050816000806101000a81548173ffffffffffffffffffffffffffffffffffffffff021916908373ffffffffffffffffffffffffffffffffffffffff1602179055508173ffffffffffffffffffffffffffffffffffffffff168173ffffffffffffffffffffffffffffffffffffffff167f8be0079c531659141344cd1fd0a4f28419497f9722a3daafe3b4186f6b6457e060405160405180910390a35050565b60005b600c80549050811015612fa3576000600c8281548110612ec257612ec161332d565b5b9060005260206000200160009054906101000a900473ffffffffffffffffffffffffffffffffffffffff16905082600960008373ffffffffffffffffffffffffffffffffffffffff1673ffffffffffffffffffffffffffffffffffffffff16815260200190815260200160002054612f3a91906134ab565b600b60008373ffffffffffffffffffffffffffffffffffffffff1673ffffffffffffffffffffffffffffffffffffffff1681526020019081526020016000206000828254612f8891906135ed565b92505081905550508080612f9b9061338b565b915050612e9f565b5050565b6000818310612fb65781612fb8565b825b905092915050565b600033905090565b600080fd5b600073ffffffffffffffffffffffffffffffffffffffff82169050919050565b6000612ff882612fcd565b9050919050565b61300881612fed565b811461301357600080fd5b50565b60008135905061302581612fff565b92915050565b60006020828403121561304157613040612fc8565b5b600061304f84828501613016565b91505092915050565b60008115159050919050565b61306d81613058565b82525050565b60006020820190506130886000830184613064565b92915050565b6000819050919050565b6130a18161308e565b81146130ac57600080fd5b50565b6000813590506130be81613098565b92915050565b6000602082840312156130da576130d9612fc8565b5b60006130e8848285016130af565b91505092915050565b6000806040838503121561310857613107612fc8565b5b6000613116858286016130af565b9250506020613127858286016130af565b9150509250929050565b60008060006060848603121561314a57613149612fc8565b5b6000613158868287016130af565b9350506020613169868287016130af565b925050604061317a868287016130af565b9150509250925092565b61318d81612fed565b82525050565b60006020820190506131a86000830184613184565b92915050565b6131b78161308e565b82525050565b60006020820190506131d260008301846131ae565b92915050565b60006040820190506131ed60008301856131ae565b6131fa60208301846131ae565b9392505050565b600081519050919050565b600082825260208201905092915050565b60005b8381101561323b578082015181840152602081019050613220565b60008484015250505050565b6000601f19601f8301169050919050565b600061326382613201565b61326d818561320c565b935061327d81856020860161321d565b61328681613247565b840191505092915050565b600060208201905081810360008301526132ab8184613258565b905092915050565b6000819050919050565b60006132d86132d36132ce84612fcd565b6132b3565b612fcd565b9050919050565b60006132ea826132bd565b9050919050565b60006132fc826132df565b9050919050565b61330c816132f1565b82525050565b60006020820190506133276000830184613303565b92915050565b7f4e487b7100000000000000000000000000000000000000000000000000000000600052603260045260246000fd5b7f4e487b7100000000000000000000000000000000000000000000000000000000600052601160045260246000fd5b60006133968261308e565b91507fffffffffffffffffffffffffffffffffffffffffffffffffffffffffffffffff82036133c8576133c761335c565b5b600182019050919050565b7f546f6b656e207265736572766573206465706c65746564000000000000000000600082015250565b600061340960178361320c565b9150613414826133d3565b602082019050919050565b60006020820190508181036000830152613438816133fc565b9050919050565b7f455448207265736572766573206465706c657465640000000000000000000000600082015250565b600061347560158361320c565b91506134808261343f565b602082019050919050565b600060208201905081810360008301526134a481613468565b9050919050565b60006134b68261308e565b91506134c18361308e565b92508282026134cf8161308e565b915082820484148315176134e6576134e561335c565b5b5092915050565b7f4e487b7100000000000000000000000000000000000000000000000000000000600052601260045260246000fd5b60006135278261308e565b91506135328361308e565b925082613542576135416134ed565b5b828204905092915050565b7f736c697070616765207472696767657265640000000000000000000000000000600082015250565b600061358360128361320c565b915061358e8261354d565b602082019050919050565b600060208201905081810360008301526135b281613576565b9050919050565b60006135c48261308e565b91506135cf8361308e565b92508282039050818111156135e7576135e661335c565b5b92915050565b60006135f88261308e565b91506136038361308e565b925082820190508082111561361b5761361a61335c565b5b92915050565b60006040820190506136366000830185613184565b61364360208301846131ae565b9392505050565b61365381613058565b811461365e57600080fd5b50565b6000815190506136708161364a565b92915050565b60006020828403121561368c5761368b612fc8565b5b600061369a84828501613661565b91505092915050565b7f496e73756666696369656e74206c697175696469747900000000000000000000600082015250565b60006136d960168361320c565b91506136e4826136a3565b602082019050919050565b60006020820190508181036000830152613708816136cc565b9050919050565b7f4e6577207573657220686173206e6f20736176696e6773000000000000000000600082015250565b600061374560178361320c565b91506137508261370f565b602082019050919050565b6000602082019050818103600083015261377481613738565b9050919050565b7f6d617820736c6970706167652074726967676572656400000000000000000000600082015250565b60006137b160168361320c565b91506137bc8261377b565b602082019050919050565b600060208201905081810360008301526137e0816137a4565b9050919050565b7f6d696e20736c6970706167652074726967676572656400000000000000000000600082015250565b600061381d60168361320c565b9150613828826137e7565b602082019050919050565b6000602082019050818103600083015261384c81613810565b9050919050565b7f726577617264206572726f720000000000000000000000000000000000000000600082015250565b6000613889600c8361320c565b915061389482613853565b602082019050919050565b600060208201905081810360008301526138b88161387c565b9050919050565b7f546f6b656e20726573657276657320776173206e6f7420300000000000000000600082015250565b60006138f560188361320c565b9150613900826138bf565b602082019050919050565b60006020820190508181036000830152613924816138e8565b9050919050565b7f45544820726573657276657320776173206e6f7420302e000000000000000000600082015250565b600061396160178361320c565b915061396c8261392b565b602082019050919050565b6000602082019050818103600083015261399081613954565b9050919050565b7f4e6565642065746820746f2063726561746520706f6f6c2e0000000000000000600082015250565b60006139cd60188361320c565b91506139d882613997565b602082019050919050565b600060208201905081810360008301526139fc816139c0565b9050919050565b600081519050613a1281613098565b92915050565b600060208284031215613a2e57613a2d612fc8565b5b6000613a3c84828501613a03565b91505092915050565b7f4e6f74206861766520656e6f75676820746f6b656e7320746f2063726561746560008201527f2074686520706f6f6c0000000000000000000000000000000000000000000000602082015250565b6000613aa160298361320c565b9150613aac82613a45565b604082019050919050565b60006020820190508181036000830152613ad081613a94565b9050919050565b7f4e65656420746f6b656e7320746f2063726561746520706f6f6c2e0000000000600082015250565b6000613b0d601b8361320c565b9150613b1882613ad7565b602082019050919050565b60006020820190508181036000830152613b3c81613b00565b9050919050565b6000606082019050613b586000830186613184565b613b656020830185613184565b613b7260408301846131ae565b949350505050565b7f496e73756666696369656e742045544820616e6420746f6b656e206c6971756960008201527f6469747900000000000000000000000000000000000000000000000000000000602082015250565b6000613bd660248361320c565b9150613be182613b7a565b604082019050919050565b60006020820190508181036000830152613c0581613bc9565b9050919050565b7f53686f756c64207769746864726177206e6f6e2d7a65726f2045544800000000600082015250565b6000613c42601c8361320c565b9150613c4d82613c0c565b602082019050919050565b60006020820190508181036000830152613c7181613c35565b9050919050565b7f506c65617365207769746864726177206c657373207468616e20616c6c20736160008201527f76696e6773000000000000000000000000000000000000000000000000000000602082015250565b6000613cd460258361320c565b9150613cdf82613c78565b604082019050919050565b60006020820190508181036000830152613d0381613cc7565b9050919050565b7f53686f756c642073656e64206e6f6e2d7a65726f204554480000000000000000600082015250565b6000613d4060188361320c565b9150613d4b82613d0a565b602082019050919050565b60006020820190508181036000830152613d6f81613d33565b9050919050565b7f496e73756666696369656e7420746f6b656e7300000000000000000000000000600082015250565b6000613dac60138361320c565b9150613db782613d76565b602082019050919050565b60006020820190508181036000830152613ddb81613d9f565b9050919050565b7f496e73756666696369656e7420455448204c6971756964697479000000000000600082015250565b6000613e18601a8361320c565b9150613e2382613de2565b602082019050919050565b60006020820190508181036000830152613e4781613e0b565b9050919050565b7f4e6f74206861766520656e6f75676820746f6b656e7320746f2073776170206660008201527f6f72206574680000000000000000000000000000000000000000000000000000602082015250565b6000613eaa60268361320c565b9150613eb582613e4e565b604082019050919050565b60006020820190508181036000830152613ed981613e9d565b9050919050565b7f4e65656420746f6b656e7320746f20737761702e000000000000000000000000600082015250565b6000613f1660148361320c565b9150613f2182613ee0565b602082019050919050565b60006020820190508181036000830152613f4581613f09565b9050919050565b7f4f776e61626c653a206e6577206f776e657220697320746865207a65726f206160008201527f6464726573730000000000000000000000000000000000000000000000000000602082015250565b6000613fa860268361320c565b9150613fb382613f4c565b604082019050919050565b60006020820190508181036000830152613fd781613f9b565b9050919050565b7f4e487b7100000000000000000000000000000000000000000000000000000000600052602260045260246000fd5b6000600282049050600182168061402557607f821691505b60208210810361403857614037613fde565b5b50919050565b7f73706563696669656420696e646578206973206c6172676572207468616e207460008201527f6865206e756d626572206f66206c707300000000000000000000000000000000602082015250565b600061409a60308361320c565b91506140a58261403e565b604082019050919050565b600060208201905081810360008301526140c98161408d565b9050919050565b7f4e487b7100000000000000000000000000000000000000000000000000000000600052603160045260246000fd5b7f4f776e61626c653a2063616c6c6572206973206e6f7420746865206f776e6572600082015250565b600061413560208361320c565b9150614140826140ff565b602082019050919050565b6000602082019050818103600083015261416481614128565b905091905056fea2646970667358221220f58298b5d568c75070391ff76dbe8ec1b8ad3107bb4953910a8ee00dcb3369cf64736f6c63430008110033",
  "linkReferences": {},
  "deployedLinkReferences": {}
}